:100000000C94C6000C94E3000C94E3000C94E30001
:100010000C94E3000C94E3000C94E3000C94E300D4
:100020000C9469040C94E3000C94E3000C94E3003A
:100030000C94E3000C94E3000C94E3000C94E300B4
:100040000C94E3000C94E3000C94E3000C94E300A4
:100050000C94E3000C94E3000C94E3000C94E30094
:100060000C94E3000C94E3000C94E3000C9407045C
:100070000C945F040C942F040C94E3009801FD038E
:10008000FD034102FD03FD03FD03FD03FD03FD032D
:10009000FD03FD03FD038402FD03FD03FD03FD03DA
:1000A000FD03FD03FD03FD03FD03FD03FD03FD0350
:1000B000FD03FD03FD03FD03FD03FD03FD03FD0340
:1000C000FD03FD03FD03FD03FD03FD03FD03FD0330
:1000D000FD03FD03FD03FD03FD03FD03FD03FD0320
:1000E000FD03FD03FD03FD03FD03FD03FD03FD0310
:1000F000FD03FD03FD03FD03E802FD03F501FD0320
:100100005D03A90310074807480718074807480771
:10011000480748074807480748074807480720078F
:100120004807480748074807480748074807480757
:100130004807480748074807480748074807480747
:100140004807480748074807480748074807480737
:100150004807480748074807480748074807480727
:100160004807480748074807480748074807480717
:100170004807480748074807480748074807480707
:1001800028074807300748073807400711241FBED3
:10019000CFEFCDBFDFE3DEBF19E3A0E0B8E3EEEFC2
:1001A000F9E102C005900D92A636B107D9F72EE30A
:1001B000A6E6B9E301C01D92A938B207E1F70E9493
:1001C00035050C94FD0C0C9400000E9476050895F2
:1001D0002CE231E0FC01228333830895FC0180810D
:1001E0009181009721F00197808391830895828106
:1001F000938180839183349A08950E94EE0008953C
:10020000CF93DF93C9E6D9E31A8243E050E0BE0101
:100210008FEF9FEF0E944C068B839C8385E0DF91DC
:10022000CF910895EF92FF920F931F93CF93DF9397
:100230001F92CDB7DEB7611102C00E94360A009747
:1002400011F40E94360A8C016150E62EF12C2FEF3A
:10025000E21AF20AE80EF91EF80191918F019983D2
:10026000CE0101960E942505E016F106A9F70E942D
:100270002F050F90DF91CF911F910F91FF90EF907D
:100280000895FC0111A628EE33E022A333A313A6A0
:1002900080936739909368398F960E9439060E983B
:1002A0000895EF92FF920F931F93CF93DF93CDB7F3
:1002B000DEB7DA95CDBFDEBF80916739909168399E
:1002C000892B41F49AC280916739909168398F9651
:1002D0000E9493060E94FB048111F5CFE0916739DB
:1002E000F0916839DF01A75CBE4F8C91882309F437
:1002F00084C281E082A71C9288EE93E082A393A33C
:1003000082E090E00E94CB04609167397091683977
:10031000FB01E05CFE4FE0818E2F90E0FC01339703
:10032000E434F10508F069C2E25CFF4F0C94300A36
:1003300081E080936639E9E6F9E3DB01A85CBE4F12
:100340008C91808383E08183DB01D5961C91D597C6
:10035000110F1283D2968C91D29790E0982F882714
:10036000D3962C91822B80549C49AE014F5F5F4FF6
:10037000612F880F991F0E942B081123C1F0FE01E5
:100380003196ACE6B9E34FEF410FE42EF12CA70113
:100390004F5F5F4F9F01240F351F81918D932E1763
:1003A0003F07D9F7FA01E459F64C7F0106C00F2E3A
:1003B000FCE6EF2EF9E3FF2EF02D412F50E04D5FCC
:1003C0005F4F69E679E38FEF9FEF0E944C06D701FC
:1003D0008C9311969C930E9A65E0610F89E699E3E0
:1003E0000E9412011092663908C2E9E6F9E3DB01C6
:1003F000A85CBE4F8C91808383E48183DB01D69619
:100400008C91D697982F990F9283D396EC91F0E028
:10041000EE0FFF1FE60FF71F8823A9F040E00CE660
:1004200019E38181D8018C930E5F1F4FC80101979A
:1004300020813296DC012C934F5FDB01D6968C91A4
:10044000481778F303C040E00CE619E350E0440F8E
:10045000551F4D5F5F4F69E679E38FEF9FEF0E9475
:100460004C06F80180839183E0916739F0916839F7
:1004700066A9660F6B5F0E9A89E699E30E941201E6
:10048000BCC181E080936639DB01D2968C91D29712
:1004900090E0982F8827D3962C91D397822BD496CF
:1004A0004C91D49750E0542F4427D5962C91420F6D
:1004B000511DBC0160547C49660F771F82E79BE3A6
:1004C0000E94C407A0916739B0916839D096E9E6D7
:1004D000F9E32FE639E38D918193E217F307D9F71A
:1004E00046E050E069E679E38FEF9FEF0E944C060B
:1004F000E9E6F9E3868397830E9A68E0CF010E94CC
:1005000012011092663979C181E080936639FB014E
:1005100082A990E0982F882723A9822B80549C4998
:1005200026A9DB01D79630A9311119C02093803C50
:10053000880F991F80937E3C90937F3C222359F033
:10054000E1E8FCE3215030E02E57334C8D9181934C
:10055000E217F307D9F781E08093773B36C032305A
:10056000A1F52093843D8093823D9093833D222387
:1005700069F0FD01A5E8BDE38FEF820F90E08A5797
:10058000924C21912D938A179B07D9F781E0809394
:10059000753BDB01D096E9E6F9E32FE639E38D916F
:1005A0008193E217F307D9F746E050E069E679E373
:1005B0008FEF9FEF0E944C06E9E6F9E3868397836D
:1005C0000E9A68E0CF010E9412011092663915C19F
:1005D000DB019D968D919C919E97009729F0019744
:1005E0009D968D939C939E97E9E6F9E3DB01A85CC9
:1005F000BE4F8C91808381E48183FB0181A5882398
:1006000009F44AC011A6E9E6F9E381E08283DB013F
:1006100094968C919497838395968C9195978483E7
:1006200098968C918583882311F140E00FE619E3B9
:10063000DB019696ED91FC9197978181F80180837B
:100640000E5F1F4F9696ED91FC919797CF01029602
:1006500096968D939C939797D801119780818C9350
:100660004F5FDB0198968C91481710F303C040E070
:100670000FE619E350E04D5F5F4F440F551F69E6E9
:1006800079E38FEF9FEF0E944C06F80180839183FE
:1006900007561943602F0BC085A596A5892B21F419
:1006A0000E940001682F03C00E940001682F0E9A6B
:1006B00089E699E30E941201A0C0E9E6F9E3DB01B3
:1006C000A85CBE4F8C91808385E48183DB01D59645
:1006D0001C91110F1283AE014F5F5F4F612F80E2BB
:1006E00090E00E942B081123C1F0FE013196ACE688
:1006F000B9E34FEF410FE42EF12CA7014F5F5F4F9D
:100700009F01240F351F81918D932E173F07D9F735
:10071000FA01E459F64C7F0106C00F2EFCE6EF2EDD
:10072000F9E3FF2EF02D412F50E04D5F5F4F69E65A
:1007300079E38FEF9FEF0E944C06D7018C931196BF
:100740009C930E9A65E0610F89E699E30E9412017D
:1007500054C06115710509F450C0FB0142A950E075
:100760004550510940937B3B50937C3B41155105CB
:1007700089F020E0822F90E0FB01E80FF91F33A9F8
:10078000FC01EE58F44C33872F5F822F90E08417E2
:10079000950780F309E619E3DB01D0968C91D09799
:1007A000F8018083D1968C91D1978183FA01EE581C
:1007B000F44C808590E0982F88272781822B1E9605
:1007C0008D939C931F978185D80112968C931297D5
:1007D000828513968C9344E050E0B8018FEF9FEF31
:1007E0000E944C06F801848395830E9A66E0C80146
:1007F0000E94120181E08093763BD395CDBFDEBF8E
:10080000DF91CF911F910F91FF90EF9008951F926C
:100810000F920FB60F9211242F933F934F935F9334
:100820006F937F938F939F93AF93BF93EF93FF93B8
:100830000E94FE040E9451010E941705FF91EF9152
:10084000BF91AF919F918F917F916F915F914F91E8
:100850003F912F910F900FBE0F901F9018951F92F0
:100860000F920FB60F9211242F933F934F935F93E4
:100870006F937F938F939F93AF93BF93EF93FF9368
:100880008091040886FF06C081E598E30E94C007B6
:100890000E941705E0E0F8E084818483FF91EF91E6
:1008A000BF91AF919F918F917F916F915F914F9188
:1008B0003F912F910F900FBE0F901F9018951F9290
:1008C0000F920FB60F9211240F900FBE0F901F9032
:1008D00018951F920F920FB60F9211242F938F939A
:1008E0009F9381E08093703B80916B3A90916C3A3A
:1008F000892B41F010926B3A10926C3A81E0809310
:10090000713B18C0809100389091013880362AEEF2
:10091000920758F0109200381092013881E090E070
:1009200080936B3A90936C3A05C00196809300389F
:10093000909301388091783B882389F08091693ABF
:1009400090916A3A01968093693A90936A3A0A972D
:1009500030F01092783B1092693A10926A3A809186
:100960005138882319F081508093513881E0809369
:100970000B0A9F918F912F910F900FBE0F901F9098
:100980001895882311F0299A08952998089586B119
:100990008695817008951816190644F420E030E019
:1009A00000002F5F3F4F82179307D1F70895DC01B6
:1009B00090916E3B992389F0915090936E3BE0911A
:1009C0006D3AF0E0E159F54C80818C9380916D3A5D
:1009D0008F5F80936D3A80E008951C9210926D3A7B
:1009E00010926E3A8FEFEFE6FAE3DF011D928A95DF
:1009F000E9F781E0089580916E3B089580910408A5
:100A00008823A4F4E0E0F8E0808190E89483E0910A
:100A10006E3A91E09E0F90936E3AF0E0E159F54CFA
:100A2000808380916E3B8F5F80936E3B08958FEF44
:100A3000EFE6FAE3DF011D928A95E9F710926E3B2B
:100A400010926E3A10926D3A0895DC01E0E0F8E001
:100A5000948195FFFDCF8C91809302080895E0E08A
:100A6000F8E084818064848308950E94E5000E94F8
:100A7000B408FFCF80E0089540E068ED81E690E0A3
:100A80000E948B0580E00895789480E00895E0E16D
:100A9000F4E0808188608193E83184E0F807C9F749
:100AA000E0E3F4E0808188608193E83384E0F80734
:100AB000C9F7E0E5F4E0808188608193E83584E05F
:100AC000F807C9F708950298E2E1F4E08081877F92
:100AD0008083E0E0F2E0818181608183019A09985E
:100AE0008181816081830E949C0508950E94470551
:100AF000069A0E98209A2898249A2C980E943C05D1
:100B00000E9463050E9491050E9444050E948F0582
:100B10000E943A050895FC0164BF4083089580E077
:100B20000895E0E0FAE081E082872EE13EE426A32A
:100B300037A3808380E00895E0E0F8E086EB92E060
:100B40008087918780EC8583868383E2878380E03A
:100B50000895219A289A299A81E090E00E94CB0476
:100B6000299881E090E00E94CB0428980895289865
:100B7000219A299881E090E00E94CB04289A81E094
:100B800090E00E94CB04299A0895219A2998289AE6
:100B900081E090E00E94CB04289881E090E00E94E0
:100BA000CB040895219A299A289A81E090E00E9426
:100BB000CB04289881E090E00E94CB040895CF9365
:100BC000DF93D82F219AC8E028988D2F80780E9433
:100BD000C10481E090E00E94CB04289A81E090E07B
:100BE0000E94CB04DD0FC15079F7289881E090E096
:100BF0000E94CB04299A289A219881E090E00E94D3
:100C0000CB04C5E0C1500E94C704882311F0C11174
:100C1000F9CF289881E090E00E94CB0481E0C111D7
:100C200080E0DF91CF9108950F931F93CF93DF93CF
:100C30002198C8E0D0E010E800E0289A81E090E038
:100C40000E94CB040E94C7048111012B289A81E0E5
:100C500090E00E94CB04289881E090E00E94CB04B1
:100C60001695219751F7802FDF91CF911F910F910A
:100C70000895FC01E65FFE4F10823896108233978C
:100C8000108211823397108231962AE030E020835F
:100C900031830E949C050895DB014115510509F43B
:100CA00041C0460F571FFC01EF70FF27EE0FFF1FDB
:100CB000EE5FF74C929582958F7089279F708927F8
:100CC00020813181282739279D91E92FEF70F0E0AD
:100CD000EE0FFF1FEE5FF74C0190F081E02D2E2705
:100CE0003F2792959F70E92FF0E0EE0FFF1FEE5F18
:100CF000F74CB901729562956F7067277F7067270F
:100D00008081918186279727F901EF70FF27EE0FE9
:100D1000FF1FEE5FF74C60817181862797274A1786
:100D20005B0709F60895EF92FF920F931F93CF93FD
:100D3000DF93EC018FE69BE30E94D7048823A1F0A8
:100D4000FE01EE5EFE4F10820E941705FE01E45F79
:100D5000FE4F1082339610821182C35FDE4F8AE00D
:100D600090E08883998305C1888181110FC081E05B
:100D7000FE01EE5EFE4F808336971082339610821E
:100D800011828AE090E032978083918383E08883A8
:100D9000FE01EE5EFE4F8081882319F0813089F0DC
:100DA000E8C0FE01E45FFE4F10823396108211828C
:100DB000C35FDE4F8AE090E0888399830E94170525
:100DC000D8C0FE01E15FFE4F80819181E0916F3BD1
:100DD000DE01A80FB91F1196EC93009779F4DE019C
:100DE000A75FBE4F8C91E81709F4BBC0EE2309F44E
:100DF000B8C0FE01EE5EFE4F1082B3C0019709F04D
:100E00004DC0DE01AF5EBE4FEC938E2F90E0FC0133
:100E10003397E434F105E0F5EE57FF4F0C94300AB8
:100E200088E090E0FE01E35FFE4F8083918358C02D
:100E300088E090E0FE01E35FFE4F8083918350C025
:100E40008BE090E0FE01E35FFE4F8083918348C01A
:100E500084E090E0FE01E35FFE4F8083918340C019
:100E600088E090E0FE01E35FFE4F8083918338C00D
:100E700088E090E0FE01E35FFE4F8083918330C005
:100E800089E690E0FE01E35FFE4F8083918328C0F6
:100E9000FE01EE5EFE4F10820E941705FE01EF5E1E
:100EA000FE4F8081803169F432978081918106976D
:100EB000B9F4329780916F3B90E0099680839183DB
:100EC0000FC0863469F4FE01E15FFE4F808191819D
:100ED000029731F4329780916F3B90E08083918349
:100EE000FE01E15FFE4F80819181019680839183B5
:100EF00032970081118180179107D8F135961082C1
:100F0000339710821182780182E0E81AF108A70174
:100F1000BE016F5F7F4F8FEF9FEF0E944C06FE0177
:100F2000E00FF11F208130E0322F2227FE01EE0D6D
:100F3000FF1D4181240F311D8217930749F4FE01E3
:100F4000E45FFE4F1082C65FDE4F81E0888311C0F0
:100F5000FE01E45FFE4F81E08083C65FDE4F1882B2
:100F600008C0FE01EF5EFE4F8081803109F0A9CFFD
:100F7000B7CFDF91CF911F910F91FF90EF90089520
:100F80000E9439060E9808950F931F93CF93DF9315
:100F9000162F072FC42FD52F0E94A90586EA0E947D
:100FA000DF05802F0E94DF05812F0E94DF058D2F36
:100FB0000E94DF058C2F0E94DF050E94B705DF919C
:100FC000CF911F910F910895CF93DF93C82FD92F01
:100FD0000E94A90586EA0E94DF058D2F0E94DF0589
:100FE0008C2F0E94DF050E94A90587EA0E94DF0579
:100FF0000E941406C82F0E94D2050E94B7058C2FAC
:10100000DF91CF910895CF93DF93EC0189E990E0D0
:101010000E94E4071F82888788E990E00E94E40725
:101020002F813885A901482BCA018F8398870097A3
:1010300049F0E2E2F8E3868797878AE59AE58683B6
:10104000978306C0E2E2F8E31686178616821782B7
:10105000DF91CF910895CF92DF92EF92FF920F939D
:101060001F93CF93DF93C82FD92FE62ED42EF52EC2
:101070000E94A90586EA0E94DF058D2F0E94DF05E8
:101080008C2F0E94DF050E94A90587EA0E94DF05D8
:10109000EE2001F10D2D1F2DCC24CA94CE0CD12CA5
:1010A0008FEFC81AD80AC0E0D0E0F12CE1E0EE1AC8
:1010B000F1080E941406F80181938F01CE15DF0517
:1010C0001CF40E94C50502C00E94D2052196CC15D1
:1010D000DD0579F70E94B705DF91CF911F910F9140
:1010E000FF90EF90DF90CF900895805F9D4FFC01BF
:1010F00080819181880F991F0895805F9D4FFC0129
:1011000080819181880F991F08950F931F93CF932A
:10111000DF93C82FD92F8B010E94A90586EA0E9470
:10112000DF058D2F0E94DF058C2F0E94DF05E8016F
:101130000C5F1F4F89910E94DF05C017D107D1F7BF
:101140000E94B705DF91CF911F910F91089585E817
:101150009EE30E94E80082E298E30E94410182E758
:101160009BE30E94030808950E94A708C0E7DBE301
:101170008881882319F018820E94F50889818823C4
:10118000B9F30E94C5081982F3CF80916439823087
:1011900021F481E08093723B0DC0833021F481E023
:1011A0008093733B07C0843029F481E08093743BC3
:1011B00080936439809164398F5F80936439089596
:1011C0008091443890914538009771F00197809351
:1011D000443890934538892B39F484E080935C3906
:1011E00082E298E30E94410108959F92AF92BF92DC
:1011F000CF92DF92EF92FF920F931F93CF93DF93E3
:1012000000D000D0CDB7DEB760E085E89EE30E9455
:10121000FD000E94E0088091753B882309F44BC0D3
:1012200082E79BE30E9475086C018091843D560122
:10123000A80EB11CCA14DB04D8F510E00F2EF2E79B
:10124000EF2EFBE3FF2EF02D99249394AE014F5F18
:101250005F4F64E0C6010E942B08FE01319604E056
:10126000010F40E09F01A12FB0E0AB57B24C8C9131
:101270009081981301C04F5F1F5FD9018C93319605
:101280001013F0CF443069F0BE016F5F7F4FC6018D
:101290000E948508F7019682D70116968C918111DC
:1012A000FBCFB4E0CB0ED11C102FCA14DB0470F2BC
:1012B0001092753BC6C08091763B882309F450C0DC
:1012C000A0907B3BB0907C3BBB24E0E2AE0EB11C17
:1012D000F1E2AF16B10408F440C010E06894CC24E9
:1012E000C5F8D12C0F2EF2E7EF2EFBE3FF2EF02DE9
:1012F00099249394AE014F5F5F4F64E0C6010E9452
:101300002B08FE01319604E0010F40E09F01A12F60
:10131000B0E0AE58B44C1B968C919081981301C0EC
:101320004F5F1F5FD9018C9331961013EFCF44307C
:1013300069F0BE016F5F7F4FC6010E948508F7010B
:101340009682D70116968C918111FBCFB4E0CB0E1B
:10135000D11C102FCA14DB0468F21092763B71C0C6
:101360008091773B882309F46CC082E79BE30E945D
:101370007D086C018091803C5601A80EB11CCA14F6
:10138000DB04D8F510E00F2EF2E7EF2EFBE3FF2E83
:10139000F02D99249394AE014F5F5F4F64E0C60136
:1013A0000E942B08FE01319604E0010F40E09F01EE
:1013B000A12FB0E0AF57B34C8C919081981301C02E
:1013C0004F5F1F5FD9018C9331961013F0CF4430DB
:1013D00069F0BE016F5F7F4FC6010E948508F7016B
:1013E0009682D70116968C918111FBCFB4E0CB0E7B
:1013F000D11C102FCA14DB0470F280917D3C823026
:1014000039F48091723B8823A9F01092723B17C087
:101410008B3039F48091733B882361F01092733BD9
:101420000EC0823E39F48091743B882319F01092EB
:10143000743B05C0E2E7FBE3108211821282109236
:10144000773B2496CDBFDEBFDF91CF911F910F91E7
:10145000FF90EF90DF90CF90BF90AF909F90089556
:10146000EE0FFF1F0590F491E02D099481E090E0CC
:10147000F8940C94FD0CABE0B0E0E1E4FAE00C94DD
:10148000CC0C6C017B018A01FC01168217828381DE
:1014900081FFCCC1CE0101963C01F6019381F70199
:1014A00093FD859193FF81917F01882309F4BAC14F
:1014B000853239F493FD859193FF81917F018532C7
:1014C00029F4B60190E00E94320CE7CF912C212C38
:1014D000312CFFE1F315D8F08B3279F038F48032FB
:1014E00079F08332A1F4232D20611DC08D3261F08B
:1014F000803369F4232D216016C0832D8260382E3D
:10150000E32DE4603E2E2AC0F32DF8601DC037FCA9
:101510002DC020ED280F2A3040F08E32B9F436FC71
:1015200081C1232D2064322E19C036FE06C08AE008
:10153000989E200D1124922E11C0EAE02E9E200DBF
:101540001124222EF32DF0623F2E08C08C3621F498
:10155000832D8068382E02C0883641F4F70193FD50
:10156000859193FF81917F018111B3CF982F9F7D4A
:101570009554933028F40C5F1F4F9FE399830DC05F
:10158000833631F0833771F0833509F059C021C0BB
:10159000F801808189830E5F1F4F88248394912CEA
:1015A000530113C02801F2E04F0E511CF801A08036
:1015B000B18036FE03C0692D70E002C06FEF7FEF8F
:1015C000C5010E94270C4C018201F32DFF773F2EAD
:1015D00016C0280122E0420E511CF801A080B18003
:1015E00036FE03C0692D70E002C06FEF7FEFC501CA
:1015F0000E941C0C4C01F32DF0683F2E820133FC3D
:101600001BC0822D90E088169906B0F4B60180E2E6
:1016100090E00E94320C2A94F4CFF50137FC8591BA
:1016200037FE81915F01B60190E00E94320C2110DB
:101630002A9421E0821A91088114910471F7E8C07C
:10164000843611F0893641F5F80137FE07C0608114
:101650007181828193810C5F1F4F08C0608171810D
:10166000072E000C880B990B0E5F1F4FF32DFF7692
:101670003F2E97FF09C090958095709561957F4F9B
:101680008F4F9F4FF0683F2E2AE030E0A3010E9469
:101690006E0C882E861845C0853731F4232D2F7E99
:1016A000B22E2AE030E025C0932D997FB92E8F36D7
:1016B000C1F018F4883579F0B5C0803719F0883753
:1016C00021F0B0C0E92FE061BE2EB4FE0DC0FB2DAD
:1016D000F460BF2E09C034FE0AC0292F2660B22E46
:1016E00006C028E030E005C020E130E002C020E183
:1016F00032E0F801B7FE07C0608171818281938179
:101700000C5F1F4F06C06081718180E090E00E5F2A
:101710001F4FA3010E946E0C882E8618FB2DFF77A9
:101720003F2E36FE0DC0232D2E7FA22E891458F495
:1017300034FE0BC032FC09C0832D8E7EA82E05C05E
:10174000B82CA32C03C0B82C01C0B92CA4FE0FC028
:10175000FE01E80DF11D8081803321F49A2D997EE0
:10176000A92E09C0A2FE06C0B394B39404C08A2D6A
:10177000867809F0B394A3FC11C0A0FE06C0B21491
:1017800088F4280C922C9B180EC0B21460F4B60199
:1017900080E290E00E94320CB394F7CFB21418F4B8
:1017A0002B1802C0982C212CA4FE10C0B60180E397
:1017B00090E00E94320CA2FE17C0A1FC03C088E793
:1017C00090E002C088E590E0B6010CC08A2D8678D2
:1017D00059F0A1FE02C08BE201C080E2A7FC8DE2BD
:1017E000B60190E00E94320C891438F4B60180E30F
:1017F00090E00E94320C9A94F7CF8A94F301E80D9E
:10180000F11D8081B60190E00E94320C8110F5CF6D
:10181000222009F442CEB60180E290E00E94320C10
:101820002A94F6CFF6018681978102C08FEF9FEF51
:101830002B96E2E10C94E50CFC01059061507040A0
:101840000110D8F7809590958E0F9F1F0895FC0189
:101850006150704001900110D8F7809590958E0FDF
:101860009F1F08950F931F93CF93DF93FB01238155
:1018700021FD03C08FEF9FEF2CC022FF16C04681D1
:101880005781248135814217530744F4A081B181E7
:101890009D012F5F3F4F208331838C9326813781B9
:1018A0002F5F3F4F2683378314C08B01EC01FB0170
:1018B0000084F185E02D0995892BE1F6D801169673
:1018C0008D919C911797019616968D939C931797DF
:1018D000CE01DF91CF911F910F910895FA01AA27B0
:1018E000283051F1203181F1E8946F936E7F6E5F63
:1018F0007F4F8F4F9F4FAF4FB1E03ED0B4E03CD011
:10190000670F781F891F9A1FA11D680F791F8A1FF3
:10191000911DA11D6A0F711D811D911DA11D20D05A
:1019200009F468943F912AE0269F11243019305D14
:101930003193DEF6CF010895462F4770405D419305
:10194000B3E00FD0C9F7F6CF462F4F70405D4A3352
:1019500018F0495D31FD4052419302D0A9F7EACF1A
:10196000B4E0A6959795879577956795BA95C9F749
:1019700000976105710508959B01AC010A2E06943C
:101980005795479537952795BA95C9F7620F731FF5
:10199000841F951FA01D08952F923F924F925F9232
:1019A0006F927F928F929F92AF92BF92CF92DF926F
:1019B000EF92FF920F931F93CF93DF93CDB7DEB7D4
:1019C000CA1BDB0BCDBFDEBF09942A883988488843
:1019D0005F846E847D848C849B84AA84B984C8844B
:1019E000DF80EE80FD800C811B81AA81B981CE0F42
:0E19F000D11DCDBFDEBFED010895F894FFCFED
:1019FE000100000001CC01D8001401F0003C0028C9
:101A0E0001E401A0006C007801B40050019C018833
:101A1E00004403010001000000000301000100006A
:101A2E0000000000000000000000000000000000A8
:101A3E0000000000E803000000000000000000E8C5
:101A4E000300000000000000000000000000000085
:101A5E000000000000000000000000000000000078
:101A6E000000000000000000000000000000000068
:101A7E000000000000000000000000000000000058
:101A8E000000000000000000000000000000000048
:101A9E000000000000000000000000000000000038
:101AAE000000000000000000000000000000000028
:101ABE000000000000000000000000000000000018
:101ACE000000000000000000000000000000000008
:101ADE0000000000000000000000000000000000F8
:101AEE0000000000000000000000000000000000E8
:101AFE0000000000000000000000000000000000D8
:101B0E0000000000000000000000000000000000C7
:101B1E0000000000000000000000000000000000B7
:101B2E0000000000000000000000000000000000A7
:101B3E000000000000000000000000000000000097
:101B4E000000000000000000000002000400000081
:061B5E0000000000010080
:00000001FF
