:100000000C94C6000C94E3000C94E3000C94E30001
:100010000C94E3000C94E3000C94E3000C94E300D4
:100020000C94DE040C94E3000C94E3000C94E300C5
:100030000C94E3000C94E3000C94E3000C94E300B4
:100040000C94E3000C94E3000C94E3000C94E300A4
:100050000C94E3000C94E3000C94E3000C94E30094
:100060000C94E3000C94E3000C94E3000C947C04E7
:100070000C94D4040C94A4040C94E300980172042E
:1000800072044D02720472047204720472047204E7
:10009000720472047204A102720472047204720483
:1000A00072047204720472047204720472047204A0
:1000B0007204720472047204720472047204720490
:1000C0007204720472047204720472047204720480
:1000D0007204720472047204720472047204720470
:1000E0007204720472047204720472047204720460
:1000F00072047204720472045F037204F9017204E0
:10010000D9031F048507BD07BD078D07BD07BD07C0
:10011000BD07BD07BD07BD07BD07BD07BD079507E7
:10012000BD07BD07BD07BD07BD07BD07BD07BD07AF
:10013000BD07BD07BD07BD07BD07BD07BD07BD079F
:10014000BD07BD07BD07BD07BD07BD07BD07BD078F
:10015000BD07BD07BD07BD07BD07BD07BD07BD077F
:10016000BD07BD07BD07BD07BD07BD07BD07BD076F
:10017000BD07BD07BD07BD07BD07BD07BD07BD075F
:100180009D07BD07A507BD07AD07B50711241FBE15
:10019000CFEFCDBFDFE3DEBF19E3A0E0B8E3E6E7D2
:1001A000FBE102C005900D92A636B107D9F72EE308
:1001B000A6E6B9E301C01D92A638B207E1F70E9496
:1001C000AA050C94B90D0C9400000E94EB0508954B
:1001D0002CE231E0FC01228333830895FC0180810D
:1001E0009181009721F00197808391830895828106
:1001F000938180839183349A08950E94EE0008953C
:10020000CF93DF93C8E6D9E31A8243E050E0BE0102
:100210008FEF9FEF0E94C1068B839C8385E0DF9167
:10022000CF910895EF92FF920F931F93CF93DF9397
:100230001F92CDB7DEB7611102C00E94F20A00978B
:1002400011F40E94F20A8C016150E62EF12C2FEF7E
:10025000E21AF20AE80EF91EF80191918F019983D2
:10026000CE0101960E949A05E016F106A9F70E94B8
:10027000A4050F90DF91CF911F910F91FF90EF9008
:100280000895FC0111A628EE33E022A333A313A6A0
:1002900080936639909367398F960E94AE060E98C8
:1002A0000895EF92FF920F931F93CF93DF93CDB7F3
:1002B000DEB7DA95CDBFDEBF8091663990916739A0
:1002C000892B41F40FC380916639909167398F96DD
:1002D0000E9408070E9470058111F5CFE0916639F0
:1002E000F0916739DF01A75CBE4F8C91882309F438
:1002F000F9C281E082A71C9288EE93E082A393A3C7
:1003000082E090E00E944005A0916639B091673983
:10031000FD01E05CFE4FE0814E2F50E0FA01339783
:10032000E434F10508F0DEC2E25CFF4F0C94EC0A05
:1003300028E639E3CD01885C9E4FFC018081F901FC
:10034000808383E08183D5961C91D597110F12830A
:10035000D2969C91D297D3968C91880F923021F4AB
:1003600090E0805E9E4F09C09B3021F490E0805E5B
:100370009D4F03C090E0805E9C4FAE014F5F5F4F8A
:10038000612F0E949F081123C1F0FE013196ABE658
:10039000B9E34FEF410FE42EF12CA7014F5F5F4F00
:1003A0009F01240F351F81918D932E173F07D9F799
:1003B000CA018559964C7C0106C00F2EFBE6EF2E34
:1003C000F9E3FF2EF02D412F50E04D5F5F4F68E6BF
:1003D00079E38FEF9FEF0E94C106D7018C931196AE
:1003E0009C930E9A65E0610F88E699E30E941201E2
:1003F00079C228E639E3CD01885C9E4FFC018081FB
:10040000F901808383E48183D5968C91D597982FC9
:10041000990F9283D396EC91D397F0E0EE0FFF1FE4
:10042000EA0FFB1F8823D1F0BF0140E00BE619E380
:10043000FB012181F80120830E5F1F4F980121509D
:100440003109FB0180816E5F7F4FF90180834F5F2F
:10045000D5968C91D597481758F303C040E00BE62A
:1004600019E350E0440F551F4D5F5F4F68E679E395
:100470008FEF9FEF0E94C106D8018C9311969C9339
:10048000E0916639F091673965A9660F6B5F0E9A46
:1004900088E699E30E94120125C2D2968C91D297E8
:1004A000D4964C91D49750E0542F4427D5969C91E4
:1004B000D597490F511DD3966C91D397823029F06F
:1004C0008B3049F0823EB9F40CC070E060577F4F2A
:1004D000660F771F0BC070E0605F7E4F660F771F5F
:1004E00005C070E060577E4F660F771F81E79BE382
:1004F0000E943B0806C0803121F490964D935C9396
:100500009197A0916639B0916739D096E8E6F9E302
:100510002EE639E38D918193E217F307D9F746E090
:1005200050E068E679E38FEF9FEF0E94C106E8E6AE
:10053000F9E3868397830E9A68E0CF010E94120147
:10054000D1C1D2963C91D297D3965C91D397D6964F
:100550002C91D697CD01C796D0964C91D09741114A
:1005600065C090966D917C9191976A357A4509F0B6
:10057000B9C120937E3C3230E1F43091713B33239A
:1005800009F4B0C132E030937C3C50937D3C22238F
:1005900061F0DC01EFE7FCE3215030E02058334C00
:1005A0008D918193E217F307D9F781E08093763B31
:1005B00099C13B30E1F43091723B332309F492C18D
:1005C0003BE030937C3C50937D3C222361F0DC0186
:1005D000EFE7FCE3215030E02058334C8D918193BC
:1005E000E217F307D9F781E08093763B7BC1323E77
:1005F00009F078C13091733B332309F473C132EEB3
:1006000030937C3C50937D3C222361F0DC01EFE78A
:10061000FCE3215030E02058334C8D9181932E170C
:100620003F07D9F781E08093763B5CC1423009F007
:1006300059C190966D917C9191976A357A4509F0F0
:1006400051C12093813D323029F03B3019F0323EC8
:1006500009F048C130937F3D5093803D222381F0C3
:1006600062E87DE34FEF420F50E04D57524CFC01E2
:100670002191CF01FB012193BF014E175F07B9F70D
:1006800081E08093743BD096E8E6F9E32EE639E307
:100690008D9181932E173F07D9F746E050E068E629
:1006A00079E38FEF9FEF0E94C106E8E6F9E38683C6
:1006B00097830E9A68E0CF010E94120113C19D96A4
:1006C0008D919C919E97009729F001979D968D930F
:1006D0009C939E9728E639E3CD01885C9E4FFC01F0
:1006E0008081F901808381E4818399968C91999727
:1006F000882309F44BC099961C92999781E08283D4
:1007000094968C919497838395968C9195978483F6
:1007100098968C9198978583882311F140E00EE696
:1007200019E39696ED91FC9197978181F80180836A
:100730000E5F1F4F9696ED91FC919797CF01029611
:1007400096968D939C939797C80101972081FC0101
:1007500020834F5F98968C919897481710F303C0A9
:1007600040E00EE619E350E04D5F5F4F440F551F28
:1007700068E679E38FEF9FEF0E94C106D8018C9362
:1007800011969C9306561943602F0DC09D968D912E
:100790009C919E97892B21F40E940001682F03C031
:1007A0000E940001682F0E9A88E699E30E941201C8
:1007B00099C028E639E3CD01885C9E4FFC01808119
:1007C000F901808385E48183D5966C91F62EFF0C28
:1007D000F282AE014F5F5F4F6F2D80E290E00E948A
:1007E0009F08FF20A1F0FE013196ABE6B9E30FEFC1
:1007F0000F0D10E00F5F1F4F9F01200F311F8191E0
:100800008D93E217F307D9F70559164C02C00BE692
:1008100019E34F2D50E04D5F5F4F68E679E38FEFAE
:100820009FEF0E94C106D8018C9311969C930E9A5B
:1008300065E06F0D88E699E30E94120153C010979E
:1008400009F450C0D2964C91D29750E045505109CE
:1008500040937A3B50937B3B4115510589F020E052
:10086000822F90E0FD01E80FF91F33A9FC01EF583A
:10087000F44C33872F5F822F90E08417950780F325
:1008800008E619E3D0968C91D097F8018083D19631
:100890008C91D1978183FA01EF58F44C808590E0D8
:1008A000982F88272781822B1E968D939C931F97C4
:1008B0008185D80112968C931297828513968C931A
:1008C00044E050E0B8018FEF9FEF0E94C106F801AD
:1008D000848395830E9A66E0C8010E94120181E02C
:1008E0008093753BD395CDBFDEBFDF91CF911F9134
:1008F0000F91FF90EF9008951F920F920FB60F92F5
:1009000011242F933F934F935F936F937F938F9314
:100910009F93AF93BF93EF93FF930E9473050E9441
:1009200051010E948C05FF91EF91BF91AF919F9172
:100930008F917F916F915F914F913F912F910F9088
:100940000FBE0F901F9018951F920F920FB60F9227
:1009500011242F933F934F935F936F937F938F93C4
:100960009F93AF93BF93EF93FF938091040886FF0B
:1009700006C081E598E30E9437080E948C05E0E0FC
:10098000F8E084818483FF91EF91BF91AF919F91B3
:100990008F917F916F915F914F913F912F910F9028
:1009A0000FBE0F901F9018951F920F920FB60F92C7
:1009B00011240F900FBE0F901F9018951F920F9249
:1009C0000FB60F9211242F938F939F9381E0809302
:1009D0006F3B80916A3A90916B3A892B41F010926B
:1009E0006A3A10926B3A81E08093703B18C0809114
:1009F00000389091013880362AEE920758F0109214
:100A000000381092013881E090E080936A3A909328
:100A10006B3A05C00196809300389093013880911D
:100A2000773B882389F08091683A9091693A0196E2
:100A30008093683A9093693A069730F01092773B2A
:100A40001092683A1092693A80915138882319F0CF
:100A500081508093513881E080930B0A9F918F9150
:100A60002F910F900FBE0F901F901895882311F0B3
:100A7000299A08952998089586B1869581700895D8
:100A80001816190644F420E030E000002F5F3F4FB5
:100A900082179307D1F70895DC0190916D3B99235C
:100AA00089F0915090936D3BE0916C3AF0E0E259FF
:100AB000F54C80818C9380916C3A8F5F80936C3A77
:100AC00080E008951C9210926C3A10926D3A8FEF6C
:100AD000EEE6FAE3DF011D928A95E9F781E00895D9
:100AE00080916D3B0895809104088823A4F4E0E090
:100AF000F8E0808190E89483E0916D3A91E09E0F58
:100B000090936D3AF0E0E259F54C808380916D3B13
:100B10008F5F80936D3B08958FEFEEE6FAE3DF0180
:100B20001D928A95E9F710926D3B10926D3A1092E2
:100B30006C3A0895DC01E0E0F8E0948195FFFDCF88
:100B40008C91809302080895E0E0F8E0848180644D
:100B5000848308950E94E5000E946009FFCF80E031
:100B6000089540E068ED81E690E00E94000680E094
:100B70000895789480E00895E0E1F4E08081886051
:100B80008193E83184E0F807C9F7E0E3F4E080817D
:100B900088608193E83384E0F807C9F7E0E5F4E082
:100BA000808188608193E83584E0F807C9F708956B
:100BB0000298E2E1F4E08081877F8083E0E0F2E068
:100BC000818181608183019A09988181816081831B
:100BD0000E94110608950E94BC05069A0E98209A5C
:100BE0002898249A2C980E94B1050E94D8050E944A
:100BF00006060E94B9050E9404060E94AF050895EA
:100C0000FC0164BF4083089580E00895E0E0FAE0CD
:100C100081E082872EE13EE426A337A3808380E033
:100C20000895E0E0F8E086EB92E08087918780EC21
:100C30008583868383E2878380E00895219A289ABA
:100C4000299A81E090E00E944005299881E090E097
:100C50000E944005289808952898219A299881E0B3
:100C600090E00E944005289A81E090E00E944005B3
:100C7000299A0895219A2998289A81E090E00E9463
:100C80004005289881E090E00E9440050895219A4F
:100C9000299A289A81E090E00E944005289881E0F6
:100CA00090E00E9440050895CF93DF93D82F219ABA
:100CB000C8E028988D2F80780E94360581E090E06A
:100CC0000E944005289A81E090E00E944005DD0FD7
:100CD000C15079F7289881E090E00E944005299A58
:100CE000289A219881E090E00E944005C5E0C1501B
:100CF0000E943C05882311F0C111F9CF289881E0AA
:100D000090E00E94400581E0C11180E0DF91CF9129
:100D100008950F931F93CF93DF932198C8E0D0E0FD
:100D200010E800E0289A81E090E00E9440050E94CF
:100D30003C058111012B289A81E090E00E9440053A
:100D4000289881E090E00E9440051695219751F780
:100D5000802FDF91CF911F910F910895FC01E65FE5
:100D6000FE4F10823896108233971082118233978B
:100D7000108231962AE030E0208331830E941106F0
:100D80000895DB014115510509F441C0460F571F75
:100D9000FC01EF70FF27EE0FFF1FEE5FF74C9295FF
:100DA00082958F7089279F7089272081318128271C
:100DB00039279D91E92FEF70F0E0EE0FFF1FEE5FF6
:100DC000F74C0190F081E02D2E273F2792959F70E0
:100DD000E92FF0E0EE0FFF1FEE5FF74CB9017295BF
:100DE00062956F7067277F70672780819181862762
:100DF0009727F901EF70FF27EE0FFF1FEE5FF74C0B
:100E000060817181862797274A175B0709F6089545
:100E1000EF92FF920F931F93CF93DF93EC018EE637
:100E20009BE30E944C058823A1F0FE01EE5EFE4F7D
:100E300010820E948C05FE01E45FFE4F1082339603
:100E400010821182C35FDE4F8AE090E0888399832D
:100E500007C1888181110FC081E0FE01EE5EFE4F67
:100E60008083369710823396108211828AE090E058
:100E700032978083918383E08883FE01EE5EFE4F8C
:100E80008081882319F0813089F0EAC0FE01E45F97
:100E9000FE4F1082339610821182C35FDE4F8AE0CC
:100EA00090E0888399830E948C05DAC0FE01E15F9F
:100EB000FE4F80819181E0916E3BDE01A80FB91F4A
:100EC0001196EC93009779F4DE01A75FBE4F8C91E9
:100ED000E81709F4BDC0EE2309F4BAC0FE01EE5EC6
:100EE000FE4F1082B5C0019709F04DC0DE01AF5E24
:100EF000BE4FEC938E2F90E0FC013397E434F10564
:100F0000E0F5EE57FF4F0C94EC0A88E090E0FE010C
:100F1000E35FFE4F808391835AC088E090E0FE013A
:100F2000E35FFE4F8083918352C089E090E0FE0131
:100F3000E35FFE4F808391834AC084E090E0FE012E
:100F4000E35FFE4F8083918342C088E090E0FE0122
:100F5000E35FFE4F808391833AC088E090E0FE011A
:100F6000E35FFE4F8083918332C089E690E0FE010B
:100F7000E35FFE4F808391832AC0FE01EE5EFE4F49
:100F800010820E948C05FE01EF5EFE4F8081803151
:100F900079F43297808191810697C9F43297209134
:100FA0006E3B80819181820F911D808391830FC060
:100FB000863469F4FE01E15FFE4F808191810297E2
:100FC00031F4329780916E3B90E080839183FE01F3
:100FD000E15FFE4F808191810196808391833297FA
:100FE0000081118180179107D8F1359610823397CF
:100FF00010821182780182E0E81AF108A701BE018F
:101000006F5F7F4F8FEF9FEF0E94C106FE01E00FE1
:10101000F11F208130E0322F2227FE01EE0DFF1D4F
:101020004181240F311D8217930749F4FE01E45FCB
:10103000FE4F1082C65FDE4F81E0888311C0FE0143
:10104000E45FFE4F81E08083C65FDE4F188208C0F8
:10105000FE01EF5EFE4F8081803109F0A9CFB7CF4E
:10106000DF91CF911F910F91FF90EF9008950E9413
:10107000AE060E9808951F93CF93DF93D62F172FA8
:10108000C42F0E941E0686EA0E945406812F0E94E9
:1010900054068D2F0E94540680E00E9454068C2F27
:1010A0000E9454060E942C06DF91CF911F91089553
:1010B000CF93DF93C82FD92F0E941E0686EA0E9485
:1010C00054068D2F0E9454068C2F0E9454060E94B5
:1010D0001E0687EA0E9454060E948906C82F0E94B5
:1010E00047060E942C068C2FDF91CF910895CF9355
:1010F000DF93EC0189E990E00E9458081F828887FD
:1011000088E990E00E9458082F813885A901482B72
:10111000CA018F839887009749F0E2E2F8E3868757
:1011200097878AE59AE58683978306C0E2E2F8E32B
:101130001686178616821782DF91CF910895CF9277
:10114000DF92EF92FF920F931F93CF93DF93C82FFD
:10115000D92FE62ED42EF52E0E941E0686EA0E9476
:1011600054068D2F0E9454068C2F0E9454060E9414
:101170001E0687EA0E945406EE2001F10D2D1F2D58
:10118000CC24CA94CE0CD12C8FEFC81AD80AC0E058
:10119000D0E0F12CE1E0EE1AF1080E948906F80196
:1011A00081938F01CE15DF051CF40E943A0602C020
:1011B0000E9447062196CC15DD0579F70E942C0682
:1011C000DF91CF911F910F91FF90EF90DF90CF9023
:1011D0000895FC01E25FFD4F2081223041F43196F9
:1011E000808190E080579F4F880F991F08952B3082
:1011F00051F4FC01E15FFD4F808190E0805F9E4FE4
:10120000880F991F0895FC01E15FFD4F808190E0F8
:1012100080579E4F880F991F0895FC01E55FFE4F90
:101220002081223041F43196808190E080579F4F99
:10123000880F991F08952B3051F4FC01E45FFE4F95
:10124000808190E0805F9E4F880F991F0895FC0178
:10125000E45FFE4F808190E080579E4F880F991F7A
:1012600008950F931F93CF93DF93C82FD92F8B012E
:101270000E941E0686EA0E9454068D2F0E94540684
:101280008C2F0E945406E8010C5F1F4F89910E9429
:101290005406C017D107D1F70E942C06DF91CF91D9
:1012A0001F910F91089582E89EE30E94E80082E278
:1012B00098E30E94410181E79BE30E94770808952B
:1012C0000E945309CFE6DBE302E218E3888188231A
:1012D00019F018820E94A90989818823B9F3F801BD
:1012E00080A191A18A359A4511F40E947909198249
:1012F000EDCF80916439823021F481E08093713B9D
:101300000DC0833021F481E08093723B07C08430AC
:1013100029F481E08093733B809364398091643930
:101320008F5F809364390895809144389091453857
:10133000009771F001978093443890934538892B3A
:1013400039F484E080935C3982E298E30E944101A1
:1013500008959F92AF92BF92CF92DF92EF92FF9249
:101360000F931F93CF93DF9300D000D0CDB7DEB79C
:1013700060E082E89EE30E94FD000E949409809153
:101380004238909143388A359A4509F016C18091C8
:10139000743B882309F44BC081E79BE30E94E90872
:1013A0006C018091813D5601A80EB11CCA14DB046A
:1013B000D8F510E00F2EF1E7EF2EFBE3FF2EF02D16
:1013C00099249394AE014F5F5F4F64E0C6010E9481
:1013D0009F08FE01319604E0010F40E09F01A12F1C
:1013E000B0E0AE57B24C8C919081981301C04F5F22
:1013F0001F5FD9018C9331961013F0CF443069F000
:10140000BE016F5F7F4FC6010E943109F7019682CE
:10141000D70116968C918111FBCFB4E0CB0ED11C75
:10142000102FCA14DB0470F21092743BC6C0809176
:10143000753B882309F450C0A0907A3BB0907B3B69
:10144000BB24E0E2AE0EB11CF1E2AF16B10408F429
:1014500040C010E06894CC24C5F8D12C0F2EF1E7E1
:10146000EF2EFBE3FF2EF02D99249394AE014F5FF6
:101470005F4F64E0C6010E949F08FE01319604E0C0
:10148000010F40E09F01A12FB0E0AF58B44C1B9674
:101490008C919081981301C04F5F1F5FD9018C938D
:1014A00031961013EFCF443069F0BE016F5F7F4F6C
:1014B000C6010E943109F7019682D70116968C91D8
:1014C0008111FBCFB4E0CB0ED11C102FCA14DB046A
:1014D00068F21092753B71C08091763B882309F4C5
:1014E0006CC081E79BE30E940D096C0180917E3CFA
:1014F0005601A80EB11CCA14DB04D8F510E00F2E5B
:10150000F1E7EF2EFBE3FF2EF02D99249394AE012B
:101510004F5F5F4F64E0C6010E949F08FE01319655
:1015200004E0010F40E09F01A12FB0E0A158B34CAF
:101530008C919081981301C04F5F1F5FD9018C93EC
:1015400031961013F0CF443069F0BE016F5F7F4FCA
:10155000C6010E943109F7019682D70116968C9137
:101560008111FBCFB4E0CB0ED11C102FCA14DB04C9
:1015700070F280917C3C823039F48091713B8823F9
:10158000A9F01092713B17C08B3039F48091723BF7
:10159000882361F01092723B0EC0823E39F4809134
:1015A000733B882319F01092733B05C0E1E7FBE31E
:1015B0001082118212821092763B2496CDBFDEBF3C
:1015C000DF91CF911F910F91FF90EF90DF90CF901F
:1015D000BF90AF909F900895EE0FFF1F0590F4917C
:1015E000E02D099481E090E0F8940C94B90DABE003
:1015F000B0E0EDEFFAE00C94880D6C017B018A01FC
:10160000FC0116821782838181FFCCC1CE01019635
:101610003C01F6019381F70193FD859193FF819140
:101620007F01882309F4BAC1853239F493FD85918D
:1016300093FF81917F01853229F4B60190E00E94E9
:10164000EE0CE7CF912C212C312CFFE1F315D8F0D3
:101650008B3279F038F4803279F08332A1F4232D83
:1016600020611DC08D3261F0803369F4232D21602B
:1016700016C0832D8260382EE32DE4603E2E2AC0F2
:10168000F32DF8601DC037FC2DC020ED280F2A3047
:1016900040F08E32B9F436FC81C1232D2064322E05
:1016A00019C036FE06C08AE0989E200D1124922EA5
:1016B00011C0EAE02E9E200D1124222EF32DF0629F
:1016C0003F2E08C08C3621F4832D8068382E02C04E
:1016D000883641F4F70193FD859193FF81917F0155
:1016E0008111B3CF982F9F7D9554933028F40C5FD0
:1016F0001F4F9FE399830DC0833631F0833771F01C
:10170000833509F059C021C0F801808189830E5FBB
:101710001F4F88248394912C530113C02801F2E0B9
:101720004F0E511CF801A080B18036FE03C0692D18
:1017300070E002C06FEF7FEFC5010E94E30C4C0127
:101740008201F32DFF773F2E16C0280122E0420EC2
:10175000511CF801A080B18036FE03C0692D70E0F5
:1017600002C06FEF7FEFC5010E94D80C4C01F32D32
:10177000F0683F2E820133FC1BC0822D90E088165A
:101780009906B0F4B60180E290E00E94EE0C2A9433
:10179000F4CFF50137FC859137FE81915F01B601E9
:1017A00090E00E94EE0C21102A9421E0821A910808
:1017B0008114910471F7E8C0843611F0893641F53F
:1017C000F80137FE07C060817181828193810C5FCF
:1017D0001F4F08C060817181072E000C880B990B88
:1017E0000E5F1F4FF32DFF763F2E97FF09C0909598
:1017F0008095709561957F4F8F4F9F4FF0683F2E7A
:101800002AE030E0A3010E942A0D882E861845C0E8
:10181000853731F4232D2F7EB22E2AE030E025C00B
:10182000932D997FB92E8F36C1F018F4883579F051
:10183000B5C0803719F0883721F0B0C0E92FE061DA
:10184000BE2EB4FE0DC0FB2DF460BF2E09C034FEC9
:101850000AC0292F2660B22E06C028E030E005C05D
:1018600020E130E002C020E132E0F801B7FE07C01D
:1018700060817181828193810C5F1F4F06C06081FE
:10188000718180E090E00E5F1F4FA3010E942A0D3E
:10189000882E8618FB2DFF773F2E36FE0DC0232D98
:1018A0002E7FA22E891458F434FE0BC032FC09C0DE
:1018B000832D8E7EA82E05C0B82CA32C03C0B82C77
:1018C00001C0B92CA4FE0FC0FE01E80DF11D8081FE
:1018D000803321F49A2D997EA92E09C0A2FE06C05C
:1018E000B394B39404C08A2D867809F0B394A3FC12
:1018F00011C0A0FE06C0B21488F4280C922C9B18CC
:101900000EC0B21460F4B60180E290E00E94EE0CCA
:10191000B394F7CFB21418F42B1802C0982C212CD2
:10192000A4FE10C0B60180E390E00E94EE0CA2FE7F
:1019300017C0A1FC03C088E790E002C088E590E0F2
:10194000B6010CC08A2D867859F0A1FE02C08BE248
:1019500001C080E2A7FC8DE2B60190E00E94EE0C8F
:10196000891438F4B60180E390E00E94EE0C9A945A
:10197000F7CF8A94F301E80DF11D8081B60190E064
:101980000E94EE0C8110F5CF222009F442CEB60160
:1019900080E290E00E94EE0C2A94F6CFF601868158
:1019A000978102C08FEF9FEF2B96E2E10C94A10D7F
:1019B000FC010590615070400110D8F7809590951A
:1019C0008E0F9F1F0895FC0161507040019001101F
:1019D000D8F7809590958E0F9F1F08950F931F93B2
:1019E000CF93DF93FB01238121FD03C08FEF9FEF96
:1019F0002CC022FF16C046815781248135814217B1
:101A0000530744F4A081B1819D012F5F3F4F208394
:101A100031838C93268137812F5F3F4F2683378315
:101A200014C08B01EC01FB010084F185E02D0995C8
:101A3000892BE1F6D80116968D919C911797019606
:101A400016968D939C931797CE01DF91CF911F919E
:101A50000F910895FA01AA27283051F1203181F120
:101A6000E8946F936E7F6E5F7F4F8F4F9F4FAF4FA6
:101A7000B1E03ED0B4E03CD0670F781F891F9A1FB9
:101A8000A11D680F791F8A1F911DA11D6A0F711D6D
:101A9000811D911DA11D20D009F468943F912AE079
:101AA000269F11243019305D3193DEF6CF01089561
:101AB000462F4770405D4193B3E00FD0C9F7F6CF92
:101AC000462F4F70405D4A3318F0495D31FD40525A
:101AD000419302D0A9F7EACFB4E0A69597958795F0
:101AE00077956795BA95C9F70097610571050895CF
:101AF0009B01AC010A2E069457954795379527957B
:101B0000BA95C9F7620F731F841F951FA01D089512
:101B10002F923F924F925F926F927F928F929F92FD
:101B2000AF92BF92CF92DF92EF92FF920F931F93EB
:101B3000CF93DF93CDB7DEB7CA1BDB0BCDBFDEBFC4
:101B400009942A88398848885F846E847D848C84CF
:101B50009B84AA84B984C884DF80EE80FD800C81D8
:101B60001B81AA81B981CE0FD11DCDBFDEBFED0192
:061B70000895F894FFCF78
:101B76000100000001CC01D8001401F0003C00284F
:101B860001E401A0006C007801B40050019C0188BA
:101B960000440301000100000000030100010000F1
:101BA600000000000000000000000000000000002F
:101BB60000000000E803000000000000000000E84C
:101BC600030000000000000000000000000000000C
:101BD60000000000000000000000000000000000FF
:101BE60000000000000000000000000000000000EF
:101BF60000000000000000000000000000000000DF
:101C060000000000000000000000000000000000CE
:101C160000000000000000000000000000000000BE
:101C260000000000000000000000000000000000AE
:101C3600000000000000000000000000000000009E
:101C4600000000000000000000000000000000008E
:101C5600000000000000000000000000000000007E
:101C6600000000000000000000000000000000006E
:101C7600000000000000000000000000000000005E
:101C8600000000000000000000000000000000004E
:101C9600000000000000000000000000000000003E
:101CA600000000000000000000000000000000002E
:101CB600000000000000000000000000000000001E
:101CC6000000000000000000000002000400000008
:061CD60000000000010007
:00000001FF
